{
  "_format": "hh-sol-artifact-1",
  "contractName": "Letter3NFT",
  "sourceName": "contracts/Letter3NFT.sol",
  "abi": [
    {
      "inputs": [],
      "stateMutability": "nonpayable",
      "type": "constructor"
    },
    {
      "anonymous": false,
      "inputs": [
        {
          "indexed": true,
          "internalType": "address",
          "name": "owner",
          "type": "address"
        },
        {
          "indexed": true,
          "internalType": "address",
          "name": "approved",
          "type": "address"
        },
        {
          "indexed": true,
          "internalType": "uint256",
          "name": "tokenId",
          "type": "uint256"
        }
      ],
      "name": "Approval",
      "type": "event"
    },
    {
      "anonymous": false,
      "inputs": [
        {
          "indexed": true,
          "internalType": "address",
          "name": "owner",
          "type": "address"
        },
        {
          "indexed": true,
          "internalType": "address",
          "name": "operator",
          "type": "address"
        },
        {
          "indexed": false,
          "internalType": "bool",
          "name": "approved",
          "type": "bool"
        }
      ],
      "name": "ApprovalForAll",
      "type": "event"
    },
    {
      "anonymous": false,
      "inputs": [
        {
          "indexed": false,
          "internalType": "address",
          "name": "sender",
          "type": "address"
        },
        {
          "indexed": false,
          "internalType": "uint256",
          "name": "tokenId",
          "type": "uint256"
        }
      ],
      "name": "NewLetter3NFTMinted",
      "type": "event"
    },
    {
      "anonymous": false,
      "inputs": [
        {
          "indexed": true,
          "internalType": "address",
          "name": "from",
          "type": "address"
        },
        {
          "indexed": true,
          "internalType": "address",
          "name": "to",
          "type": "address"
        },
        {
          "indexed": true,
          "internalType": "uint256",
          "name": "tokenId",
          "type": "uint256"
        }
      ],
      "name": "Transfer",
      "type": "event"
    },
    {
      "inputs": [],
      "name": "MAX_SUPPLY",
      "outputs": [
        {
          "internalType": "uint256",
          "name": "",
          "type": "uint256"
        }
      ],
      "stateMutability": "view",
      "type": "function"
    },
    {
      "inputs": [
        {
          "internalType": "address",
          "name": "to",
          "type": "address"
        },
        {
          "internalType": "uint256",
          "name": "tokenId",
          "type": "uint256"
        }
      ],
      "name": "approve",
      "outputs": [],
      "stateMutability": "nonpayable",
      "type": "function"
    },
    {
      "inputs": [
        {
          "internalType": "address",
          "name": "owner",
          "type": "address"
        }
      ],
      "name": "balanceOf",
      "outputs": [
        {
          "internalType": "uint256",
          "name": "",
          "type": "uint256"
        }
      ],
      "stateMutability": "view",
      "type": "function"
    },
    {
      "inputs": [
        {
          "internalType": "uint256",
          "name": "tokenId",
          "type": "uint256"
        }
      ],
      "name": "getApproved",
      "outputs": [
        {
          "internalType": "address",
          "name": "",
          "type": "address"
        }
      ],
      "stateMutability": "view",
      "type": "function"
    },
    {
      "inputs": [],
      "name": "getTotalNFTsMintedSoFar",
      "outputs": [
        {
          "internalType": "uint256",
          "name": "",
          "type": "uint256"
        }
      ],
      "stateMutability": "view",
      "type": "function"
    },
    {
      "inputs": [
        {
          "internalType": "address",
          "name": "owner",
          "type": "address"
        },
        {
          "internalType": "address",
          "name": "operator",
          "type": "address"
        }
      ],
      "name": "isApprovedForAll",
      "outputs": [
        {
          "internalType": "bool",
          "name": "",
          "type": "bool"
        }
      ],
      "stateMutability": "view",
      "type": "function"
    },
    {
      "inputs": [],
      "name": "makeLetter3NFT",
      "outputs": [],
      "stateMutability": "nonpayable",
      "type": "function"
    },
    {
      "inputs": [],
      "name": "name",
      "outputs": [
        {
          "internalType": "string",
          "name": "",
          "type": "string"
        }
      ],
      "stateMutability": "view",
      "type": "function"
    },
    {
      "inputs": [
        {
          "internalType": "uint256",
          "name": "tokenId",
          "type": "uint256"
        }
      ],
      "name": "ownerOf",
      "outputs": [
        {
          "internalType": "address",
          "name": "",
          "type": "address"
        }
      ],
      "stateMutability": "view",
      "type": "function"
    },
    {
      "inputs": [
        {
          "internalType": "uint256",
          "name": "tokenId",
          "type": "uint256"
        }
      ],
      "name": "pickRandomColor",
      "outputs": [
        {
          "internalType": "string",
          "name": "",
          "type": "string"
        }
      ],
      "stateMutability": "view",
      "type": "function"
    },
    {
      "inputs": [
        {
          "internalType": "uint256",
          "name": "tokenId",
          "type": "uint256"
        }
      ],
      "name": "pickRandomFirstWord",
      "outputs": [
        {
          "internalType": "string",
          "name": "",
          "type": "string"
        }
      ],
      "stateMutability": "view",
      "type": "function"
    },
    {
      "inputs": [
        {
          "internalType": "uint256",
          "name": "tokenId",
          "type": "uint256"
        }
      ],
      "name": "pickRandomSecondWord",
      "outputs": [
        {
          "internalType": "string",
          "name": "",
          "type": "string"
        }
      ],
      "stateMutability": "view",
      "type": "function"
    },
    {
      "inputs": [
        {
          "internalType": "uint256",
          "name": "tokenId",
          "type": "uint256"
        }
      ],
      "name": "pickRandomThirdWord",
      "outputs": [
        {
          "internalType": "string",
          "name": "",
          "type": "string"
        }
      ],
      "stateMutability": "view",
      "type": "function"
    },
    {
      "inputs": [
        {
          "internalType": "address",
          "name": "from",
          "type": "address"
        },
        {
          "internalType": "address",
          "name": "to",
          "type": "address"
        },
        {
          "internalType": "uint256",
          "name": "tokenId",
          "type": "uint256"
        }
      ],
      "name": "safeTransferFrom",
      "outputs": [],
      "stateMutability": "nonpayable",
      "type": "function"
    },
    {
      "inputs": [
        {
          "internalType": "address",
          "name": "from",
          "type": "address"
        },
        {
          "internalType": "address",
          "name": "to",
          "type": "address"
        },
        {
          "internalType": "uint256",
          "name": "tokenId",
          "type": "uint256"
        },
        {
          "internalType": "bytes",
          "name": "data",
          "type": "bytes"
        }
      ],
      "name": "safeTransferFrom",
      "outputs": [],
      "stateMutability": "nonpayable",
      "type": "function"
    },
    {
      "inputs": [
        {
          "internalType": "address",
          "name": "operator",
          "type": "address"
        },
        {
          "internalType": "bool",
          "name": "approved",
          "type": "bool"
        }
      ],
      "name": "setApprovalForAll",
      "outputs": [],
      "stateMutability": "nonpayable",
      "type": "function"
    },
    {
      "inputs": [
        {
          "internalType": "bytes4",
          "name": "interfaceId",
          "type": "bytes4"
        }
      ],
      "name": "supportsInterface",
      "outputs": [
        {
          "internalType": "bool",
          "name": "",
          "type": "bool"
        }
      ],
      "stateMutability": "view",
      "type": "function"
    },
    {
      "inputs": [],
      "name": "symbol",
      "outputs": [
        {
          "internalType": "string",
          "name": "",
          "type": "string"
        }
      ],
      "stateMutability": "view",
      "type": "function"
    },
    {
      "inputs": [
        {
          "internalType": "uint256",
          "name": "tokenId",
          "type": "uint256"
        }
      ],
      "name": "tokenURI",
      "outputs": [
        {
          "internalType": "string",
          "name": "",
          "type": "string"
        }
      ],
      "stateMutability": "view",
      "type": "function"
    },
    {
      "inputs": [
        {
          "internalType": "address",
          "name": "from",
          "type": "address"
        },
        {
          "internalType": "address",
          "name": "to",
          "type": "address"
        },
        {
          "internalType": "uint256",
          "name": "tokenId",
          "type": "uint256"
        }
      ],
      "name": "transferFrom",
      "outputs": [],
      "stateMutability": "nonpayable",
      "type": "function"
    }
  ],
  "bytecode": "0x608060405260405180610100016040528060d38152602001620045e760d39139600890816200002f9190620009a8565b50604051806080016040528060568152602001620046dd60569139600990816200005a9190620009a8565b5060405180606001604052806040518060400160405280600181526020017f490000000000000000000000000000000000000000000000000000000000000081525081526020016040518060400160405280600281526020017f486500000000000000000000000000000000000000000000000000000000000081525081526020016040518060400160405280600381526020017f5368650000000000000000000000000000000000000000000000000000000000815250815250600a90600362000127929190620005e1565b5060405180606001604052806040518060400160405280600381526020017f456174000000000000000000000000000000000000000000000000000000000081525081526020016040518060400160405280600581526020017f4472696e6b00000000000000000000000000000000000000000000000000000081525081526020016040518060400160405280600481526020017f4861746500000000000000000000000000000000000000000000000000000000815250815250600b906003620001f4929190620005e1565b5060405180606001604052806040518060400160405280600681526020017f42616e616e61000000000000000000000000000000000000000000000000000081525081526020016040518060400160405280600581526020017f4170706c6500000000000000000000000000000000000000000000000000000081525081526020016040518060400160405280600681526020017f4f72616e67650000000000000000000000000000000000000000000000000000815250815250600c906003620002c1929190620005e1565b506040518060c001604052806040518060400160405280600381526020017f726564000000000000000000000000000000000000000000000000000000000081525081526020016040518060400160405280600781526020017f233038433241380000000000000000000000000000000000000000000000000081525081526020016040518060400160405280600581526020017f626c61636b00000000000000000000000000000000000000000000000000000081525081526020016040518060400160405280600681526020017f79656c6c6f77000000000000000000000000000000000000000000000000000081525081526020016040518060400160405280600481526020017f626c75650000000000000000000000000000000000000000000000000000000081525081526020016040518060400160405280600581526020017f677265656e000000000000000000000000000000000000000000000000000000815250815250600d9060066200043f92919062000641565b503480156200044d57600080fd5b506040518060400160405280600a81526020017f4c6574746572334e4654000000000000000000000000000000000000000000008152506040518060400160405280600781526020017f4c455454455233000000000000000000000000000000000000000000000000008152508160009081620004cb9190620009a8565b508060019081620004dd9190620009a8565b5050506200050f604051806060016040528060238152602001620046ba602391396200051560201b620011c41760201c565b62000b42565b620005b5816040516024016200052c919062000b1e565b6040516020818303038152906040527f41304fac000000000000000000000000000000000000000000000000000000007bffffffffffffffffffffffffffffffffffffffffffffffffffffffff19166020820180517bffffffffffffffffffffffffffffffffffffffffffffffffffffffff8381831617835250505050620005b860201b60201c565b50565b60008151905060006a636f6e736f6c652e6c6f679050602083016000808483855afa5050505050565b8280548282559060005260206000209081019282156200062e579160200282015b828111156200062d5782518290816200061c9190620009a8565b509160200191906001019062000602565b5b5090506200063d9190620006a1565b5090565b8280548282559060005260206000209081019282156200068e579160200282015b828111156200068d5782518290816200067c9190620009a8565b509160200191906001019062000662565b5b5090506200069d9190620006a1565b5090565b5b80821115620006c55760008181620006bb9190620006c9565b50600101620006a2565b5090565b508054620006d79062000797565b6000825580601f10620006eb57506200070c565b601f0160209004906000526020600020908101906200070b91906200070f565b5b50565b5b808211156200072a57600081600090555060010162000710565b5090565b600081519050919050565b7f4e487b7100000000000000000000000000000000000000000000000000000000600052604160045260246000fd5b7f4e487b7100000000000000000000000000000000000000000000000000000000600052602260045260246000fd5b60006002820490506001821680620007b057607f821691505b602082108103620007c657620007c562000768565b5b50919050565b60008190508160005260206000209050919050565b60006020601f8301049050919050565b600082821b905092915050565b600060088302620008307fffffffffffffffffffffffffffffffffffffffffffffffffffffffffffffffff82620007f1565b6200083c8683620007f1565b95508019841693508086168417925050509392505050565b6000819050919050565b6000819050919050565b600062000889620008836200087d8462000854565b6200085e565b62000854565b9050919050565b6000819050919050565b620008a58362000868565b620008bd620008b48262000890565b848454620007fe565b825550505050565b600090565b620008d4620008c5565b620008e18184846200089a565b505050565b5b818110156200090957620008fd600082620008ca565b600181019050620008e7565b5050565b601f82111562000958576200092281620007cc565b6200092d84620007e1565b810160208510156200093d578190505b620009556200094c85620007e1565b830182620008e6565b50505b505050565b600082821c905092915050565b60006200097d600019846008026200095d565b1980831691505092915050565b60006200099883836200096a565b9150826002028217905092915050565b620009b3826200072e565b67ffffffffffffffff811115620009cf57620009ce62000739565b5b620009db825462000797565b620009e88282856200090d565b600060209050601f83116001811462000a20576000841562000a0b578287015190505b62000a1785826200098a565b86555062000a87565b601f19841662000a3086620007cc565b60005b8281101562000a5a5784890151825560018201915060208501945060208101905062000a33565b8683101562000a7a578489015162000a76601f8916826200096a565b8355505b6001600288020188555050505b505050505050565b600082825260208201905092915050565b60005b8381101562000ac057808201518184015260208101905062000aa3565b60008484015250505050565b6000601f19601f8301169050919050565b600062000aea826200072e565b62000af6818562000a8f565b935062000b0881856020860162000aa0565b62000b138162000acc565b840191505092915050565b6000602082019050818103600083015262000b3a818462000add565b905092915050565b613a958062000b526000396000f3fe608060405234801561001057600080fd5b506004361061012c5760003560e01c80636352211e116100ad578063b187301f11610071578063b187301f14610343578063b88d4fde14610373578063c575757a1461038f578063c87b56dd146103bf578063e985e9c5146103ef5761012c565b80636352211e1461029f5780636760e0c2146102cf57806370a08231146102d957806395d89b4114610309578063a22cb465146103275761012c565b806323b872dd116100f457806323b872dd146101e95780632de38d681461020557806332cb6b0c1461023557806342842e0e14610253578063514dc8c61461026f5761012c565b806301ffc9a714610131578063060475901461016157806306fdde031461017f578063081812fc1461019d578063095ea7b3146101cd575b600080fd5b61014b60048036038101906101469190612276565b61041f565b60405161015891906122be565b60405180910390f35b610169610501565b60405161017691906122f2565b60405180910390f35b610187610512565b604051610194919061239d565b60405180910390f35b6101b760048036038101906101b291906123eb565b6105a4565b6040516101c49190612459565b60405180910390f35b6101e760048036038101906101e291906124a0565b6105ea565b005b61020360048036038101906101fe91906124e0565b610701565b005b61021f600480360381019061021a91906123eb565b610761565b60405161022c919061239d565b60405180910390f35b61023d610859565b60405161024a91906122f2565b60405180910390f35b61026d600480360381019061026891906124e0565b61085e565b005b610289600480360381019061028491906123eb565b61087e565b604051610296919061239d565b60405180910390f35b6102b960048036038101906102b491906123eb565b610976565b6040516102c69190612459565b60405180910390f35b6102d7610a27565b005b6102f360048036038101906102ee9190612533565b610c6d565b60405161030091906122f2565b60405180910390f35b610311610d24565b60405161031e919061239d565b60405180910390f35b610341600480360381019061033c919061258c565b610db6565b005b61035d600480360381019061035891906123eb565b610dcc565b60405161036a919061239d565b60405180910390f35b61038d60048036038101906103889190612701565b610ec4565b005b6103a960048036038101906103a491906123eb565b610f26565b6040516103b6919061239d565b60405180910390f35b6103d960048036038101906103d491906123eb565b61101e565b6040516103e6919061239d565b60405180910390f35b61040960048036038101906104049190612784565b611130565b60405161041691906122be565b60405180910390f35b60007f80ac58cd000000000000000000000000000000000000000000000000000000007bffffffffffffffffffffffffffffffffffffffffffffffffffffffff1916827bffffffffffffffffffffffffffffffffffffffffffffffffffffffff191614806104ea57507f5b5e139f000000000000000000000000000000000000000000000000000000007bffffffffffffffffffffffffffffffffffffffffffffffffffffffff1916827bffffffffffffffffffffffffffffffffffffffffffffffffffffffff1916145b806104fa57506104f98261125d565b5b9050919050565b600061050d60076112c7565b905090565b606060008054610521906127f3565b80601f016020809104026020016040519081016040528092919081815260200182805461054d906127f3565b801561059a5780601f1061056f5761010080835404028352916020019161059a565b820191906000526020600020905b81548152906001019060200180831161057d57829003601f168201915b5050505050905090565b60006105af826112d5565b6004600083815260200190815260200160002060009054906101000a900473ffffffffffffffffffffffffffffffffffffffff169050919050565b60006105f582610976565b90508073ffffffffffffffffffffffffffffffffffffffff168373ffffffffffffffffffffffffffffffffffffffff1603610665576040517f08c379a000000000000000000000000000000000000000000000000000000000815260040161065c90612896565b60405180910390fd5b8073ffffffffffffffffffffffffffffffffffffffff16610684611320565b73ffffffffffffffffffffffffffffffffffffffff1614806106b357506106b2816106ad611320565b611130565b5b6106f2576040517f08c379a00000000000000000000000000000000000000000000000000000000081526004016106e990612928565b60405180910390fd5b6106fc8383611328565b505050565b61071261070c611320565b826113e1565b610751576040517f08c379a0000000000000000000000000000000000000000000000000000000008152600401610748906129ba565b60405180910390fd5b61075c838383611476565b505050565b60606000610795610771846116dc565b6040516020016107819190612a62565b60405160208183030381529060405261183c565b9050600a80549050816107a89190612ab3565b9050600a81815481106107be576107bd612ae4565b5b9060005260206000200180546107d3906127f3565b80601f01602080910402602001604051908101604052809291908181526020018280546107ff906127f3565b801561084c5780601f106108215761010080835404028352916020019161084c565b820191906000526020600020905b81548152906001019060200180831161082f57829003601f168201915b5050505050915050919050565b606481565b61087983838360405180602001604052806000815250610ec4565b505050565b606060006108b261088e846116dc565b60405160200161089e9190612b5f565b60405160208183030381529060405261183c565b9050600d80549050816108c59190612ab3565b9050600d81815481106108db576108da612ae4565b5b9060005260206000200180546108f0906127f3565b80601f016020809104026020016040519081016040528092919081815260200182805461091c906127f3565b80156109695780601f1061093e57610100808354040283529160200191610969565b820191906000526020600020905b81548152906001019060200180831161094c57829003601f168201915b5050505050915050919050565b6000806002600084815260200190815260200160002060009054906101000a900473ffffffffffffffffffffffffffffffffffffffff169050600073ffffffffffffffffffffffffffffffffffffffff168173ffffffffffffffffffffffffffffffffffffffff1603610a1e576040517f08c379a0000000000000000000000000000000000000000000000000000000008152600401610a1590612bcd565b60405180910390fd5b80915050919050565b6064610a3360076112c7565b10610a73576040517f08c379a0000000000000000000000000000000000000000000000000000000008152600401610a6a90612c39565b60405180910390fd5b6000610a7f60076112c7565b90506000610a8c82610761565b90506000610a9983610dcc565b90506000610aa684610f26565b90506000838383604051602001610abf93929190612c59565b60405160208183030381529060405290506000610adb8661087e565b90506000600882600985604051602001610af89493929190612d6e565b60405160208183030381529060405290506000610b3d84610b188461186f565b604051602001610b29929190612f0d565b60405160208183030381529060405261186f565b9050600081604051602001610b529190612f9e565b6040516020818303038152906040529050610ba16040518060400160405280601581526020017f0a2d2d2d2d2d2d2d2d2d2d2d2d2d2d2d2d2d2d2d2d00000000000000000000008152506111c4565b610baa816111c4565b610be86040518060400160405280601581526020017f2d2d2d2d2d2d2d2d2d2d2d2d2d2d2d2d2d2d2d2d0a00000000000000000000008152506111c4565b610bf2338a611a06565b610bfc8982611a24565b610c1f6040518060600160405280602581526020016139fb602591398a33611a91565b610c296007611b30565b7f695aae36151ffd711d204869665e2eeddbd6168978f6d57a9bf7843060b4f606338a604051610c5a929190612fc0565b60405180910390a1505050505050505050565b60008073ffffffffffffffffffffffffffffffffffffffff168273ffffffffffffffffffffffffffffffffffffffff1603610cdd576040517f08c379a0000000000000000000000000000000000000000000000000000000008152600401610cd49061305b565b60405180910390fd5b600360008373ffffffffffffffffffffffffffffffffffffffff1673ffffffffffffffffffffffffffffffffffffffff168152602001908152602001600020549050919050565b606060018054610d33906127f3565b80601f0160208091040260200160405190810160405280929190818152602001828054610d5f906127f3565b8015610dac5780601f10610d8157610100808354040283529160200191610dac565b820191906000526020600020905b815481529060010190602001808311610d8f57829003601f168201915b5050505050905090565b610dc8610dc1611320565b8383611b46565b5050565b60606000610e00610ddc846116dc565b604051602001610dec91906130c7565b60405160208183030381529060405261183c565b9050600b8054905081610e139190612ab3565b9050600b8181548110610e2957610e28612ae4565b5b906000526020600020018054610e3e906127f3565b80601f0160208091040260200160405190810160405280929190818152602001828054610e6a906127f3565b8015610eb75780601f10610e8c57610100808354040283529160200191610eb7565b820191906000526020600020905b815481529060010190602001808311610e9a57829003601f168201915b5050505050915050919050565b610ed5610ecf611320565b836113e1565b610f14576040517f08c379a0000000000000000000000000000000000000000000000000000000008152600401610f0b906129ba565b60405180910390fd5b610f2084848484611cb2565b50505050565b60606000610f5a610f36846116dc565b604051602001610f469190613135565b60405160208183030381529060405261183c565b9050600c8054905081610f6d9190612ab3565b9050600c8181548110610f8357610f82612ae4565b5b906000526020600020018054610f98906127f3565b80601f0160208091040260200160405190810160405280929190818152602001828054610fc4906127f3565b80156110115780601f10610fe657610100808354040283529160200191611011565b820191906000526020600020905b815481529060010190602001808311610ff457829003601f168201915b5050505050915050919050565b6060611029826112d5565b6000600660008481526020019081526020016000208054611049906127f3565b80601f0160208091040260200160405190810160405280929190818152602001828054611075906127f3565b80156110c25780601f10611097576101008083540402835291602001916110c2565b820191906000526020600020905b8154815290600101906020018083116110a557829003601f168201915b5050505050905060006110d3611d0e565b905060008151036110e857819250505061112b565b60008251111561111d578082604051602001611105929190613157565b6040516020818303038152906040529250505061112b565b61112684611d25565b925050505b919050565b6000600560008473ffffffffffffffffffffffffffffffffffffffff1673ffffffffffffffffffffffffffffffffffffffff16815260200190815260200160002060008373ffffffffffffffffffffffffffffffffffffffff1673ffffffffffffffffffffffffffffffffffffffff16815260200190815260200160002060009054906101000a900460ff16905092915050565b61125a816040516024016111d8919061239d565b6040516020818303038152906040527f41304fac000000000000000000000000000000000000000000000000000000007bffffffffffffffffffffffffffffffffffffffffffffffffffffffff19166020820180517bffffffffffffffffffffffffffffffffffffffffffffffffffffffff8381831617835250505050611d8d565b50565b60007f01ffc9a7000000000000000000000000000000000000000000000000000000007bffffffffffffffffffffffffffffffffffffffffffffffffffffffff1916827bffffffffffffffffffffffffffffffffffffffffffffffffffffffff1916149050919050565b600081600001549050919050565b6112de81611db6565b61131d576040517f08c379a000000000000000000000000000000000000000000000000000000000815260040161131490612bcd565b60405180910390fd5b50565b600033905090565b816004600083815260200190815260200160002060006101000a81548173ffffffffffffffffffffffffffffffffffffffff021916908373ffffffffffffffffffffffffffffffffffffffff160217905550808273ffffffffffffffffffffffffffffffffffffffff1661139b83610976565b73ffffffffffffffffffffffffffffffffffffffff167f8c5be1e5ebec7d5bd14f71427d1e84f3dd0314c0f7b2291e5b200ac8c7c3b92560405160405180910390a45050565b6000806113ed83610976565b90508073ffffffffffffffffffffffffffffffffffffffff168473ffffffffffffffffffffffffffffffffffffffff16148061142f575061142e8185611130565b5b8061146d57508373ffffffffffffffffffffffffffffffffffffffff16611455846105a4565b73ffffffffffffffffffffffffffffffffffffffff16145b91505092915050565b8273ffffffffffffffffffffffffffffffffffffffff1661149682610976565b73ffffffffffffffffffffffffffffffffffffffff16146114ec576040517f08c379a00000000000000000000000000000000000000000000000000000000081526004016114e3906131ed565b60405180910390fd5b600073ffffffffffffffffffffffffffffffffffffffff168273ffffffffffffffffffffffffffffffffffffffff160361155b576040517f08c379a00000000000000000000000000000000000000000000000000000000081526004016115529061327f565b60405180910390fd5b611566838383611e22565b611571600082611328565b6001600360008573ffffffffffffffffffffffffffffffffffffffff1673ffffffffffffffffffffffffffffffffffffffff16815260200190815260200160002060008282546115c191906132ce565b925050819055506001600360008473ffffffffffffffffffffffffffffffffffffffff1673ffffffffffffffffffffffffffffffffffffffff16815260200190815260200160002060008282546116189190613302565b92505081905550816002600083815260200190815260200160002060006101000a81548173ffffffffffffffffffffffffffffffffffffffff021916908373ffffffffffffffffffffffffffffffffffffffff160217905550808273ffffffffffffffffffffffffffffffffffffffff168473ffffffffffffffffffffffffffffffffffffffff167fddf252ad1be2c89b69c2b068fc378daa952ba7f163c4a11628f55a4df523b3ef60405160405180910390a46116d7838383611e27565b505050565b606060008203611723576040518060400160405280600181526020017f30000000000000000000000000000000000000000000000000000000000000008152509050611837565b600082905060005b6000821461175557808061173e90613336565b915050600a8261174e919061337e565b915061172b565b60008167ffffffffffffffff811115611771576117706125d6565b5b6040519080825280601f01601f1916602001820160405280156117a35781602001600182028036833780820191505090505b5090505b60008514611830576001826117bc91906132ce565b9150600a856117cb9190612ab3565b60306117d79190613302565b60f81b8183815181106117ed576117ec612ae4565b5b60200101907effffffffffffffffffffffffffffffffffffffffffffffffffffffffffffff1916908160001a905350600a85611829919061337e565b94506117a7565b8093505050505b919050565b60008160405160200161184f91906133af565b6040516020818303038152906040528051906020012060001c9050919050565b6060600082519050600081036118975760405180602001604052806000815250915050611a01565b600060036002836118a89190613302565b6118b2919061337e565b60046118be91906133c6565b905060006020826118cf9190613302565b67ffffffffffffffff8111156118e8576118e76125d6565b5b6040519080825280601f01601f19166020018201604052801561191a5781602001600182028036833780820191505090505b5090506000604051806060016040528060408152602001613a20604091399050600181016020830160005b868110156119be5760038101905062ffffff818a015116603f8160121c168401518060081b905060ff603f83600c1c1686015116810190508060081b905060ff603f8360061c1686015116810190508060081b905060ff603f831686015116810190508060e01b90508084526004840193505050611945565b5060038606600181146119d857600281146119e8576119f3565b613d3d60f01b60028303526119f3565b603d60f81b60018303525b508484525050819450505050505b919050565b611a20828260405180602001604052806000815250611e2c565b5050565b611a2d82611db6565b611a6c576040517f08c379a0000000000000000000000000000000000000000000000000000000008152600401611a639061347a565b60405180910390fd5b80600660008481526020019081526020016000209081611a8c9190613631565b505050565b611b2b838383604051602401611aa993929190613703565b6040516020818303038152906040527f1c7ec448000000000000000000000000000000000000000000000000000000007bffffffffffffffffffffffffffffffffffffffffffffffffffffffff19166020820180517bffffffffffffffffffffffffffffffffffffffffffffffffffffffff8381831617835250505050611d8d565b505050565b6001816000016000828254019250508190555050565b8173ffffffffffffffffffffffffffffffffffffffff168373ffffffffffffffffffffffffffffffffffffffff1603611bb4576040517f08c379a0000000000000000000000000000000000000000000000000000000008152600401611bab9061378d565b60405180910390fd5b80600560008573ffffffffffffffffffffffffffffffffffffffff1673ffffffffffffffffffffffffffffffffffffffff16815260200190815260200160002060008473ffffffffffffffffffffffffffffffffffffffff1673ffffffffffffffffffffffffffffffffffffffff16815260200190815260200160002060006101000a81548160ff0219169083151502179055508173ffffffffffffffffffffffffffffffffffffffff168373ffffffffffffffffffffffffffffffffffffffff167f17307eab39ab6107e8899845ad3d59bd9653f200f220920489ca2b5937696c3183604051611ca591906122be565b60405180910390a3505050565b611cbd848484611476565b611cc984848484611e87565b611d08576040517f08c379a0000000000000000000000000000000000000000000000000000000008152600401611cff9061381f565b60405180910390fd5b50505050565b606060405180602001604052806000815250905090565b6060611d30826112d5565b6000611d3a611d0e565b90506000815111611d5a5760405180602001604052806000815250611d85565b80611d64846116dc565b604051602001611d75929190613157565b6040516020818303038152906040525b915050919050565b60008151905060006a636f6e736f6c652e6c6f679050602083016000808483855afa5050505050565b60008073ffffffffffffffffffffffffffffffffffffffff166002600084815260200190815260200160002060009054906101000a900473ffffffffffffffffffffffffffffffffffffffff1673ffffffffffffffffffffffffffffffffffffffff1614159050919050565b505050565b505050565b611e36838361200e565b611e436000848484611e87565b611e82576040517f08c379a0000000000000000000000000000000000000000000000000000000008152600401611e799061381f565b60405180910390fd5b505050565b6000611ea88473ffffffffffffffffffffffffffffffffffffffff166121e7565b15612001578373ffffffffffffffffffffffffffffffffffffffff1663150b7a02611ed1611320565b8786866040518563ffffffff1660e01b8152600401611ef39493929190613894565b6020604051808303816000875af1925050508015611f2f57506040513d601f19601f82011682018060405250810190611f2c91906138f5565b60015b611fb1573d8060008114611f5f576040519150601f19603f3d011682016040523d82523d6000602084013e611f64565b606091505b506000815103611fa9576040517f08c379a0000000000000000000000000000000000000000000000000000000008152600401611fa09061381f565b60405180910390fd5b805181602001fd5b63150b7a0260e01b7bffffffffffffffffffffffffffffffffffffffffffffffffffffffff1916817bffffffffffffffffffffffffffffffffffffffffffffffffffffffff191614915050612006565b600190505b949350505050565b600073ffffffffffffffffffffffffffffffffffffffff168273ffffffffffffffffffffffffffffffffffffffff160361207d576040517f08c379a00000000000000000000000000000000000000000000000000000000081526004016120749061396e565b60405180910390fd5b61208681611db6565b156120c6576040517f08c379a00000000000000000000000000000000000000000000000000000000081526004016120bd906139da565b60405180910390fd5b6120d260008383611e22565b6001600360008473ffffffffffffffffffffffffffffffffffffffff1673ffffffffffffffffffffffffffffffffffffffff16815260200190815260200160002060008282546121229190613302565b92505081905550816002600083815260200190815260200160002060006101000a81548173ffffffffffffffffffffffffffffffffffffffff021916908373ffffffffffffffffffffffffffffffffffffffff160217905550808273ffffffffffffffffffffffffffffffffffffffff16600073ffffffffffffffffffffffffffffffffffffffff167fddf252ad1be2c89b69c2b068fc378daa952ba7f163c4a11628f55a4df523b3ef60405160405180910390a46121e360008383611e27565b5050565b6000808273ffffffffffffffffffffffffffffffffffffffff163b119050919050565b6000604051905090565b600080fd5b600080fd5b60007fffffffff0000000000000000000000000000000000000000000000000000000082169050919050565b6122538161221e565b811461225e57600080fd5b50565b6000813590506122708161224a565b92915050565b60006020828403121561228c5761228b612214565b5b600061229a84828501612261565b91505092915050565b60008115159050919050565b6122b8816122a3565b82525050565b60006020820190506122d360008301846122af565b92915050565b6000819050919050565b6122ec816122d9565b82525050565b600060208201905061230760008301846122e3565b92915050565b600081519050919050565b600082825260208201905092915050565b60005b8381101561234757808201518184015260208101905061232c565b60008484015250505050565b6000601f19601f8301169050919050565b600061236f8261230d565b6123798185612318565b9350612389818560208601612329565b61239281612353565b840191505092915050565b600060208201905081810360008301526123b78184612364565b905092915050565b6123c8816122d9565b81146123d357600080fd5b50565b6000813590506123e5816123bf565b92915050565b60006020828403121561240157612400612214565b5b600061240f848285016123d6565b91505092915050565b600073ffffffffffffffffffffffffffffffffffffffff82169050919050565b600061244382612418565b9050919050565b61245381612438565b82525050565b600060208201905061246e600083018461244a565b92915050565b61247d81612438565b811461248857600080fd5b50565b60008135905061249a81612474565b92915050565b600080604083850312156124b7576124b6612214565b5b60006124c58582860161248b565b92505060206124d6858286016123d6565b9150509250929050565b6000806000606084860312156124f9576124f8612214565b5b60006125078682870161248b565b93505060206125188682870161248b565b9250506040612529868287016123d6565b9150509250925092565b60006020828403121561254957612548612214565b5b60006125578482850161248b565b91505092915050565b612569816122a3565b811461257457600080fd5b50565b60008135905061258681612560565b92915050565b600080604083850312156125a3576125a2612214565b5b60006125b18582860161248b565b92505060206125c285828601612577565b9150509250929050565b600080fd5b600080fd5b7f4e487b7100000000000000000000000000000000000000000000000000000000600052604160045260246000fd5b61260e82612353565b810181811067ffffffffffffffff8211171561262d5761262c6125d6565b5b80604052505050565b600061264061220a565b905061264c8282612605565b919050565b600067ffffffffffffffff82111561266c5761266b6125d6565b5b61267582612353565b9050602081019050919050565b82818337600083830152505050565b60006126a461269f84612651565b612636565b9050828152602081018484840111156126c0576126bf6125d1565b5b6126cb848285612682565b509392505050565b600082601f8301126126e8576126e76125cc565b5b81356126f8848260208601612691565b91505092915050565b6000806000806080858703121561271b5761271a612214565b5b60006127298782880161248b565b945050602061273a8782880161248b565b935050604061274b878288016123d6565b925050606085013567ffffffffffffffff81111561276c5761276b612219565b5b612778878288016126d3565b91505092959194509250565b6000806040838503121561279b5761279a612214565b5b60006127a98582860161248b565b92505060206127ba8582860161248b565b9150509250929050565b7f4e487b7100000000000000000000000000000000000000000000000000000000600052602260045260246000fd5b6000600282049050600182168061280b57607f821691505b60208210810361281e5761281d6127c4565b5b50919050565b7f4552433732313a20617070726f76616c20746f2063757272656e74206f776e6560008201527f7200000000000000000000000000000000000000000000000000000000000000602082015250565b6000612880602183612318565b915061288b82612824565b604082019050919050565b600060208201905081810360008301526128af81612873565b9050919050565b7f4552433732313a20617070726f76652063616c6c6572206973206e6f7420746f60008201527f6b656e206f776e6572206e6f7220617070726f76656420666f7220616c6c0000602082015250565b6000612912603e83612318565b915061291d826128b6565b604082019050919050565b6000602082019050818103600083015261294181612905565b9050919050565b7f4552433732313a2063616c6c6572206973206e6f7420746f6b656e206f776e6560008201527f72206e6f7220617070726f766564000000000000000000000000000000000000602082015250565b60006129a4602e83612318565b91506129af82612948565b604082019050919050565b600060208201905081810360008301526129d381612997565b9050919050565b600081905092915050565b7f46495253545f574f524400000000000000000000000000000000000000000000600082015250565b6000612a1b600a836129da565b9150612a26826129e5565b600a82019050919050565b6000612a3c8261230d565b612a4681856129da565b9350612a56818560208601612329565b80840191505092915050565b6000612a6d82612a0e565b9150612a798284612a31565b915081905092915050565b7f4e487b7100000000000000000000000000000000000000000000000000000000600052601260045260246000fd5b6000612abe826122d9565b9150612ac9836122d9565b925082612ad957612ad8612a84565b5b828206905092915050565b7f4e487b7100000000000000000000000000000000000000000000000000000000600052603260045260246000fd5b7f434f4c4f52000000000000000000000000000000000000000000000000000000600082015250565b6000612b496005836129da565b9150612b5482612b13565b600582019050919050565b6000612b6a82612b3c565b9150612b768284612a31565b915081905092915050565b7f4552433732313a20696e76616c696420746f6b656e2049440000000000000000600082015250565b6000612bb7601883612318565b9150612bc282612b81565b602082019050919050565b60006020820190508181036000830152612be681612baa565b9050919050565b7f4d617820737570706c7920726561636865640000000000000000000000000000600082015250565b6000612c23601283612318565b9150612c2e82612bed565b602082019050919050565b60006020820190508181036000830152612c5281612c16565b9050919050565b6000612c658286612a31565b9150612c718285612a31565b9150612c7d8284612a31565b9150819050949350505050565b60008190508160005260206000209050919050565b60008154612cac816127f3565b612cb681866129da565b94506001821660008114612cd15760018114612ce657612d19565b60ff1983168652811515820286019350612d19565b612cef85612c8a565b60005b83811015612d1157815481890152600182019150602081019050612cf2565b838801955050505b50505092915050565b7f3c2f746578743e3c2f7376673e00000000000000000000000000000000000000600082015250565b6000612d58600d836129da565b9150612d6382612d22565b600d82019050919050565b6000612d7a8287612c9f565b9150612d868286612a31565b9150612d928285612c9f565b9150612d9e8284612a31565b9150612da982612d4b565b915081905095945050505050565b7f7b226e616d65223a202200000000000000000000000000000000000000000000600082015250565b6000612ded600a836129da565b9150612df882612db7565b600a82019050919050565b7f222c20226465736372697074696f6e223a20224120686967686c79206163636c60008201527f61696d656420636f6c6c656374696f6e206f6620737175617265732e222c202260208201527f696d616765223a2022646174613a696d6167652f7376672b786d6c3b6261736560408201527f36342c0000000000000000000000000000000000000000000000000000000000606082015250565b6000612eab6063836129da565b9150612eb682612e03565b606382019050919050565b7f227d000000000000000000000000000000000000000000000000000000000000600082015250565b6000612ef76002836129da565b9150612f0282612ec1565b600282019050919050565b6000612f1882612de0565b9150612f248285612a31565b9150612f2f82612e9e565b9150612f3b8284612a31565b9150612f4682612eea565b91508190509392505050565b7f646174613a6170706c69636174696f6e2f6a736f6e3b6261736536342c000000600082015250565b6000612f88601d836129da565b9150612f9382612f52565b601d82019050919050565b6000612fa982612f7b565b9150612fb58284612a31565b915081905092915050565b6000604082019050612fd5600083018561244a565b612fe260208301846122e3565b9392505050565b7f4552433732313a2061646472657373207a65726f206973206e6f74206120766160008201527f6c6964206f776e65720000000000000000000000000000000000000000000000602082015250565b6000613045602983612318565b915061305082612fe9565b604082019050919050565b6000602082019050818103600083015261307481613038565b9050919050565b7f5345434f4e445f574f5244000000000000000000000000000000000000000000600082015250565b60006130b1600b836129da565b91506130bc8261307b565b600b82019050919050565b60006130d2826130a4565b91506130de8284612a31565b915081905092915050565b7f54484952445f574f524400000000000000000000000000000000000000000000600082015250565b600061311f600a836129da565b915061312a826130e9565b600a82019050919050565b600061314082613112565b915061314c8284612a31565b915081905092915050565b60006131638285612a31565b915061316f8284612a31565b91508190509392505050565b7f4552433732313a207472616e736665722066726f6d20696e636f72726563742060008201527f6f776e6572000000000000000000000000000000000000000000000000000000602082015250565b60006131d7602583612318565b91506131e28261317b565b604082019050919050565b60006020820190508181036000830152613206816131ca565b9050919050565b7f4552433732313a207472616e7366657220746f20746865207a65726f2061646460008201527f7265737300000000000000000000000000000000000000000000000000000000602082015250565b6000613269602483612318565b91506132748261320d565b604082019050919050565b600060208201905081810360008301526132988161325c565b9050919050565b7f4e487b7100000000000000000000000000000000000000000000000000000000600052601160045260246000fd5b60006132d9826122d9565b91506132e4836122d9565b92508282039050818111156132fc576132fb61329f565b5b92915050565b600061330d826122d9565b9150613318836122d9565b92508282019050808211156133305761332f61329f565b5b92915050565b6000613341826122d9565b91507fffffffffffffffffffffffffffffffffffffffffffffffffffffffffffffffff82036133735761337261329f565b5b600182019050919050565b6000613389826122d9565b9150613394836122d9565b9250826133a4576133a3612a84565b5b828204905092915050565b60006133bb8284612a31565b915081905092915050565b60006133d1826122d9565b91506133dc836122d9565b92508282026133ea816122d9565b915082820484148315176134015761340061329f565b5b5092915050565b7f45524337323155524953746f726167653a2055524920736574206f66206e6f6e60008201527f6578697374656e7420746f6b656e000000000000000000000000000000000000602082015250565b6000613464602e83612318565b915061346f82613408565b604082019050919050565b6000602082019050818103600083015261349381613457565b9050919050565b60006020601f8301049050919050565b600082821b905092915050565b6000600883026134e77fffffffffffffffffffffffffffffffffffffffffffffffffffffffffffffffff826134aa565b6134f186836134aa565b95508019841693508086168417925050509392505050565b6000819050919050565b600061352e613529613524846122d9565b613509565b6122d9565b9050919050565b6000819050919050565b61354883613513565b61355c61355482613535565b8484546134b7565b825550505050565b600090565b613571613564565b61357c81848461353f565b505050565b5b818110156135a057613595600082613569565b600181019050613582565b5050565b601f8211156135e5576135b681612c8a565b6135bf8461349a565b810160208510156135ce578190505b6135e26135da8561349a565b830182613581565b50505b505050565b600082821c905092915050565b6000613608600019846008026135ea565b1980831691505092915050565b600061362183836135f7565b9150826002028217905092915050565b61363a8261230d565b67ffffffffffffffff811115613653576136526125d6565b5b61365d82546127f3565b6136688282856135a4565b600060209050601f83116001811461369b5760008415613689578287015190505b6136938582613615565b8655506136fb565b601f1984166136a986612c8a565b60005b828110156136d1578489015182556001820191506020850194506020810190506136ac565b868310156136ee57848901516136ea601f8916826135f7565b8355505b6001600288020188555050505b505050505050565b6000606082019050818103600083015261371d8186612364565b905061372c60208301856122e3565b613739604083018461244a565b949350505050565b7f4552433732313a20617070726f766520746f2063616c6c657200000000000000600082015250565b6000613777601983612318565b915061378282613741565b602082019050919050565b600060208201905081810360008301526137a68161376a565b9050919050565b7f4552433732313a207472616e7366657220746f206e6f6e20455243373231526560008201527f63656976657220696d706c656d656e7465720000000000000000000000000000602082015250565b6000613809603283612318565b9150613814826137ad565b604082019050919050565b60006020820190508181036000830152613838816137fc565b9050919050565b600081519050919050565b600082825260208201905092915050565b60006138668261383f565b613870818561384a565b9350613880818560208601612329565b61388981612353565b840191505092915050565b60006080820190506138a9600083018761244a565b6138b6602083018661244a565b6138c360408301856122e3565b81810360608301526138d5818461385b565b905095945050505050565b6000815190506138ef8161224a565b92915050565b60006020828403121561390b5761390a612214565b5b6000613919848285016138e0565b91505092915050565b7f4552433732313a206d696e7420746f20746865207a65726f2061646472657373600082015250565b6000613958602083612318565b915061396382613922565b602082019050919050565b600060208201905081810360008301526139878161394b565b9050919050565b7f4552433732313a20746f6b656e20616c7265616479206d696e74656400000000600082015250565b60006139c4601c83612318565b91506139cf8261398e565b602082019050919050565b600060208201905081810360008301526139f3816139b7565b905091905056fe416e204e465420772f20494420257320686173206265656e206d696e74656420746f2025734142434445464748494a4b4c4d4e4f505152535455565758595a6162636465666768696a6b6c6d6e6f707172737475767778797a303132333435363738392b2fa2646970667358221220bf0c3f5daa3c632056e6822cd431e89f4026c497245bd7fecf86eb1ae1115edd64736f6c634300081100333c73766720786d6c6e733d27687474703a2f2f7777772e77332e6f72672f323030302f73766727207072657365727665417370656374526174696f3d27784d696e594d696e206d656574272076696577426f783d273020302033353020333530273e3c7374796c653e2e62617365207b2066696c6c3a2077686974653b20666f6e742d66616d696c793a2073657269663b20666f6e742d73697a653a20323470783b207d3c2f7374796c653e3c726563742077696474683d273130302527206865696768743d2731303025272066696c6c3d2754686973206973204c657474657233204e465420636f6e74726163742e2057686f6121272f3e3c7465787420783d273530252720793d273530252720636c6173733d27626173652720646f6d696e616e742d626173656c696e653d276d6964646c652720746578742d616e63686f723d276d6964646c65273e",
  "linkReferences": {},
  "deployedLinkReferences": {}
}